{
  "contractName": "TicketSales",
  "abi": [
    {
      "inputs": [
        {
          "internalType": "address",
          "name": "daiAddress",
          "type": "address"
        }
      ],
      "stateMutability": "nonpayable",
      "type": "constructor"
    },
    {
      "anonymous": false,
      "inputs": [
        {
          "indexed": true,
          "internalType": "address",
          "name": "_receiver",
          "type": "address"
        },
        {
          "indexed": false,
          "internalType": "bytes32",
          "name": "_asset",
          "type": "bytes32"
        },
        {
          "indexed": false,
          "internalType": "uint256",
          "name": "_amount",
          "type": "uint256"
        }
      ],
      "name": "BalanceClaimed",
      "type": "event"
    },
    {
      "anonymous": false,
      "inputs": [
        {
          "indexed": true,
          "internalType": "bytes32",
          "name": "_eventNameHash",
          "type": "bytes32"
        },
        {
          "indexed": true,
          "internalType": "address",
          "name": "_checkerAddress",
          "type": "address"
        }
      ],
      "name": "CheckerAdded",
      "type": "event"
    },
    {
      "anonymous": false,
      "inputs": [
        {
          "indexed": true,
          "internalType": "bytes32",
          "name": "_eventNameHash",
          "type": "bytes32"
        },
        {
          "indexed": true,
          "internalType": "address",
          "name": "_checkerAddress",
          "type": "address"
        }
      ],
      "name": "CheckerRemoved",
      "type": "event"
    },
    {
      "anonymous": false,
      "inputs": [
        {
          "indexed": true,
          "internalType": "bytes32",
          "name": "_eventNameHash",
          "type": "bytes32"
        },
        {
          "indexed": true,
          "internalType": "address",
          "name": "_owner",
          "type": "address"
        },
        {
          "indexed": false,
          "internalType": "uint256",
          "name": "_ticketPrice",
          "type": "uint256"
        },
        {
          "indexed": false,
          "internalType": "uint256",
          "name": "_ticketQuantity",
          "type": "uint256"
        }
      ],
      "name": "NewEvent",
      "type": "event"
    },
    {
      "anonymous": false,
      "inputs": [
        {
          "indexed": true,
          "internalType": "address",
          "name": "previousOwner",
          "type": "address"
        },
        {
          "indexed": true,
          "internalType": "address",
          "name": "newOwner",
          "type": "address"
        }
      ],
      "name": "OwnershipTransferred",
      "type": "event"
    },
    {
      "anonymous": false,
      "inputs": [
        {
          "indexed": true,
          "internalType": "bytes32",
          "name": "_eventNameHash",
          "type": "bytes32"
        },
        {
          "indexed": true,
          "internalType": "address",
          "name": "_buyer",
          "type": "address"
        },
        {
          "indexed": true,
          "internalType": "address",
          "name": "_receiver",
          "type": "address"
        }
      ],
      "name": "TicketBought",
      "type": "event"
    },
    {
      "anonymous": false,
      "inputs": [
        {
          "indexed": true,
          "internalType": "bytes32",
          "name": "_eventNameHash",
          "type": "bytes32"
        },
        {
          "indexed": true,
          "internalType": "address",
          "name": "_atendeeAddress",
          "type": "address"
        },
        {
          "indexed": false,
          "internalType": "enum TicketAccounting.TicketState",
          "name": "_startState",
          "type": "uint8"
        },
        {
          "indexed": false,
          "internalType": "enum TicketAccounting.TicketState",
          "name": "_endState",
          "type": "uint8"
        }
      ],
      "name": "TicketChecked",
      "type": "event"
    },
    {
      "anonymous": false,
      "inputs": [
        {
          "indexed": true,
          "internalType": "bytes32",
          "name": "_eventNameHash",
          "type": "bytes32"
        },
        {
          "indexed": true,
          "internalType": "address",
          "name": "_sendAddress",
          "type": "address"
        },
        {
          "indexed": true,
          "internalType": "address",
          "name": "_receiveAddress",
          "type": "address"
        }
      ],
      "name": "TicketTransferred",
      "type": "event"
    },
    {
      "anonymous": false,
      "inputs": [
        {
          "indexed": true,
          "internalType": "bytes32",
          "name": "_eventNameHash",
          "type": "bytes32"
        },
        {
          "indexed": false,
          "internalType": "uint256",
          "name": "_ticketQuantityIssued",
          "type": "uint256"
        }
      ],
      "name": "UpdateTicketAmount",
      "type": "event"
    },
    {
      "inputs": [
        {
          "internalType": "string",
          "name": "_eventName",
          "type": "string"
        },
        {
          "internalType": "address",
          "name": "_newChecker",
          "type": "address"
        }
      ],
      "name": "addChecker",
      "outputs": [],
      "stateMutability": "nonpayable",
      "type": "function"
    },
    {
      "inputs": [
        {
          "internalType": "string",
          "name": "_eventName",
          "type": "string"
        }
      ],
      "name": "burnUnclaimedTicket",
      "outputs": [],
      "stateMutability": "nonpayable",
      "type": "function"
    },
    {
      "inputs": [
        {
          "internalType": "string",
          "name": "_eventName",
          "type": "string"
        },
        {
          "internalType": "address",
          "name": "_atendeeAddress",
          "type": "address"
        }
      ],
      "name": "checkInTicket",
      "outputs": [
        {
          "internalType": "enum TicketAccounting.TicketState",
          "name": "",
          "type": "uint8"
        }
      ],
      "stateMutability": "nonpayable",
      "type": "function"
    },
    {
      "inputs": [
        {
          "internalType": "string",
          "name": "_eventName",
          "type": "string"
        },
        {
          "internalType": "uint256",
          "name": "_ticketPrice",
          "type": "uint256"
        },
        {
          "internalType": "uint256",
          "name": "_ticketQuantity",
          "type": "uint256"
        }
      ],
      "name": "createEvent",
      "outputs": [],
      "stateMutability": "nonpayable",
      "type": "function"
    },
    {
      "inputs": [],
      "name": "dai",
      "outputs": [
        {
          "internalType": "contract IERC20",
          "name": "",
          "type": "address"
        }
      ],
      "stateMutability": "view",
      "type": "function",
      "constant": true
    },
    {
      "inputs": [
        {
          "internalType": "bytes32",
          "name": "",
          "type": "bytes32"
        }
      ],
      "name": "events",
      "outputs": [
        {
          "internalType": "address",
          "name": "owner",
          "type": "address"
        },
        {
          "internalType": "uint256",
          "name": "ticketPrice",
          "type": "uint256"
        },
        {
          "internalType": "uint256",
          "name": "ticketQuantity",
          "type": "uint256"
        },
        {
          "internalType": "uint256",
          "name": "ticketQuantityIssued",
          "type": "uint256"
        }
      ],
      "stateMutability": "view",
      "type": "function",
      "constant": true
    },
    {
      "inputs": [
        {
          "internalType": "string",
          "name": "_eventName",
          "type": "string"
        },
        {
          "internalType": "address",
          "name": "_checkAddress",
          "type": "address"
        }
      ],
      "name": "getCheckerStatus",
      "outputs": [
        {
          "internalType": "bool",
          "name": "",
          "type": "bool"
        }
      ],
      "stateMutability": "view",
      "type": "function",
      "constant": true
    },
    {
      "inputs": [
        {
          "internalType": "string",
          "name": "_eventName",
          "type": "string"
        }
      ],
      "name": "getEventData",
      "outputs": [
        {
          "internalType": "address",
          "name": "",
          "type": "address"
        },
        {
          "internalType": "uint256",
          "name": "",
          "type": "uint256"
        },
        {
          "internalType": "uint256",
          "name": "",
          "type": "uint256"
        },
        {
          "internalType": "uint256",
          "name": "",
          "type": "uint256"
        }
      ],
      "stateMutability": "view",
      "type": "function",
      "constant": true
    },
    {
      "inputs": [
        {
          "internalType": "string",
          "name": "_eventName",
          "type": "string"
        },
        {
          "internalType": "address",
          "name": "_checkAddress",
          "type": "address"
        }
      ],
      "name": "getTicketStatus",
      "outputs": [
        {
          "internalType": "enum TicketAccounting.TicketState",
          "name": "",
          "type": "uint8"
        }
      ],
      "stateMutability": "view",
      "type": "function",
      "constant": true
    },
    {
      "inputs": [],
      "name": "owner",
      "outputs": [
        {
          "internalType": "address",
          "name": "",
          "type": "address"
        }
      ],
      "stateMutability": "view",
      "type": "function",
      "constant": true
    },
    {
      "inputs": [
        {
          "internalType": "string",
          "name": "_eventName",
          "type": "string"
        },
        {
          "internalType": "address",
          "name": "_removedChecker",
          "type": "address"
        }
      ],
      "name": "removeChecker",
      "outputs": [],
      "stateMutability": "nonpayable",
      "type": "function"
    },
    {
      "inputs": [],
      "name": "renounceOwnership",
      "outputs": [],
      "stateMutability": "nonpayable",
      "type": "function"
    },
    {
      "inputs": [
        {
          "internalType": "address",
          "name": "newOwner",
          "type": "address"
        }
      ],
      "name": "transferOwnership",
      "outputs": [],
      "stateMutability": "nonpayable",
      "type": "function"
    },
    {
      "inputs": [
        {
          "internalType": "string",
          "name": "_eventName",
          "type": "string"
        },
        {
          "internalType": "address",
          "name": "_receiveAddress",
          "type": "address"
        }
      ],
      "name": "transferUnclaimedTicket",
      "outputs": [],
      "stateMutability": "nonpayable",
      "type": "function"
    },
    {
      "inputs": [
        {
          "internalType": "address",
          "name": "_address",
          "type": "address"
        },
        {
          "internalType": "bytes32",
          "name": "_asset",
          "type": "bytes32"
        }
      ],
      "name": "getBalance",
      "outputs": [
        {
          "internalType": "uint256",
          "name": "",
          "type": "uint256"
        }
      ],
      "stateMutability": "view",
      "type": "function",
      "constant": true
    },
    {
      "inputs": [
        {
          "internalType": "string",
          "name": "_eventName",
          "type": "string"
        },
        {
          "internalType": "address",
          "name": "_receiveAddress",
          "type": "address"
        }
      ],
      "name": "ownerIssueTicket",
      "outputs": [],
      "stateMutability": "nonpayable",
      "type": "function"
    },
    {
      "inputs": [
        {
          "internalType": "string",
          "name": "_eventName",
          "type": "string"
        },
        {
          "internalType": "address",
          "name": "_receiveAddress",
          "type": "address"
        }
      ],
      "name": "buyTicketDai",
      "outputs": [],
      "stateMutability": "nonpayable",
      "type": "function"
    },
    {
      "inputs": [
        {
          "internalType": "bytes32",
          "name": "_asset",
          "type": "bytes32"
        }
      ],
      "name": "claimBalance",
      "outputs": [],
      "stateMutability": "nonpayable",
      "type": "function"
    }
  ],
  "bytecode": "0x60806040523480156200001157600080fd5b5060405162003b6438038062003b64833981810160405281019062000037919062000184565b620000576200004b6200009f60201b60201c565b620000a760201b60201c565b80600360006101000a81548173ffffffffffffffffffffffffffffffffffffffff021916908373ffffffffffffffffffffffffffffffffffffffff16021790555050620001fe565b600033905090565b6000600260009054906101000a900473ffffffffffffffffffffffffffffffffffffffff16905081600260006101000a81548173ffffffffffffffffffffffffffffffffffffffff021916908373ffffffffffffffffffffffffffffffffffffffff1602179055508173ffffffffffffffffffffffffffffffffffffffff168173ffffffffffffffffffffffffffffffffffffffff167f8be0079c531659141344cd1fd0a4f28419497f9722a3daafe3b4186f6b6457e060405160405180910390a35050565b6000815190506200017e81620001e4565b92915050565b6000602082840312156200019757600080fd5b6000620001a7848285016200016d565b91505092915050565b6000620001bd82620001c4565b9050919050565b600073ffffffffffffffffffffffffffffffffffffffff82169050919050565b620001ef81620001b0565b8114620001fb57600080fd5b50565b613956806200020e6000396000f3fe608060405234801561001057600080fd5b50600436106101165760003560e01c8063aabc9cda116100a2578063c9801ad911610071578063c9801ad9146102f5578063dae7a66614610311578063e80f57ef1461032d578063f2fde38b14610349578063f4b9fa751461036557610116565b8063aabc9cda14610243578063addc046c1461025f578063bfdc4a6114610292578063c79d5ec5146102c557610116565b806364a98a27116100e957806364a98a27146101b3578063715018a6146101cf578063724457e4146101d95780638da5cb5b146102095780639e9580f61461022757610116565b80630ad1e6f11461011b5780630e009405146101375780630e46375c146101535780632f8d895a14610183575b600080fd5b61013560048036038101906101309190612ccf565b610383565b005b610151600480360381019061014c9190612ccf565b61087f565b005b61016d60048036038101906101689190612ccf565b610d1d565b60405161017a91906133cc565b60405180910390f35b61019d60048036038101906101989190612ccf565b6110e6565b6040516101aa919061336d565b60405180910390f35b6101cd60048036038101906101c89190612ccf565b61120a565b005b6101d7611498565b005b6101f360048036038101906101ee9190612ccf565b611520565b60405161020091906133cc565b60405180910390f35b610211611644565b60405161021e91906132ad565b60405180910390f35b610241600480360381019061023c9190612d23565b61166e565b005b61025d60048036038101906102589190612c8e565b6118b2565b005b61027960048036038101906102749190612c8e565b611bb1565b6040516102899493929190613328565b60405180910390f35b6102ac60048036038101906102a79190612c65565b611cf8565b6040516102bc9493929190613328565b60405180910390f35b6102df60048036038101906102da9190612c00565b611d48565b6040516102ec91906135f0565b60405180910390f35b61030f600480360381019061030a9190612ccf565b611da3565b005b61032b60048036038101906103269190612ccf565b612087565b005b61034760048036038101906103429190612c65565b612362565b005b610363600480360381019061035e9190612bd7565b612554565b005b61036d61264c565b60405161037a91906133b1565b60405180910390f35b816000816040516020016103979190613296565b6040516020818303038152906040528051906020012090506001600082815260200190815260200160002060009054906101000a900460ff1661040f576040517f08c379a000000000000000000000000000000000000000000000000000000000815260040161040690613590565b60405180910390fd5b836000816040516020016104239190613296565b6040516020818303038152906040528051906020012090506000808281526020019081526020016000206002015460008083815260200190815260200160002060030154106104a7576040517f08c379a000000000000000000000000000000000000000000000000000000000815260040161049e90613470565b60405180910390fd5b6000866040516020016104ba9190613296565b60405160208183030381529060405280519060200120905060008082815260200190815260200160002060010154600360009054906101000a900473ffffffffffffffffffffffffffffffffffffffff1673ffffffffffffffffffffffffffffffffffffffff166370a08231336040518263ffffffff1660e01b815260040161054391906132ad565b60206040518083038186803b15801561055b57600080fd5b505afa15801561056f573d6000803e3d6000fd5b505050506040513d601f19601f820116820180604052508101906105939190612d8a565b10156105d4576040517f08c379a00000000000000000000000000000000000000000000000000000000081526004016105cb90613490565b60405180910390fd5b6105de8787612672565b6106ab600080838152602001908152602001600020600101546004600080600086815260200190815260200160002060000160009054906101000a900473ffffffffffffffffffffffffffffffffffffffff1673ffffffffffffffffffffffffffffffffffffffff1673ffffffffffffffffffffffffffffffffffffffff16815260200190815260200160002060007f4441490000000000000000000000000000000000000000000000000000000000815260200190815260200160002054612a0c90919063ffffffff16565b6004600080600085815260200190815260200160002060000160009054906101000a900473ffffffffffffffffffffffffffffffffffffffff1673ffffffffffffffffffffffffffffffffffffffff1673ffffffffffffffffffffffffffffffffffffffff16815260200190815260200160002060007f4441490000000000000000000000000000000000000000000000000000000000815260200190815260200160002081905550600360009054906101000a900473ffffffffffffffffffffffffffffffffffffffff1673ffffffffffffffffffffffffffffffffffffffff166323b872dd3330600080868152602001908152602001600020600101546040518463ffffffff1660e01b81526004016107c8939291906132c8565b602060405180830381600087803b1580156107e257600080fd5b505af11580156107f6573d6000803e3d6000fd5b505050506040513d601f19601f8201168201806040525081019061081a9190612c3c565b508573ffffffffffffffffffffffffffffffffffffffff163373ffffffffffffffffffffffffffffffffffffffff16827f0f86cf592ad3ef371651e6bbaf1e7b515b208f0081ed95c5bc86b3d7946bc39e60405160405180910390a450505050505050565b816000816040516020016108939190613296565b6040516020818303038152906040528051906020012090506001600082815260200190815260200160002060009054906101000a900460ff1661090b576040517f08c379a000000000000000000000000000000000000000000000000000000000815260040161090290613590565b60405180910390fd5b60008460405160200161091e9190613296565b60405160208183030381529060405280519060200120905060016002811115610970577f4e487b7100000000000000000000000000000000000000000000000000000000600052602160045260246000fd5b60008083815260200190815260200160002060050160003373ffffffffffffffffffffffffffffffffffffffff1673ffffffffffffffffffffffffffffffffffffffff16815260200190815260200160002060009054906101000a900460ff166002811115610a08577f4e487b7100000000000000000000000000000000000000000000000000000000600052602160045260246000fd5b14610a48576040517f08c379a0000000000000000000000000000000000000000000000000000000008152600401610a3f906135d0565b60405180910390fd5b60006002811115610a82577f4e487b7100000000000000000000000000000000000000000000000000000000600052602160045260246000fd5b60008083815260200190815260200160002060050160008673ffffffffffffffffffffffffffffffffffffffff1673ffffffffffffffffffffffffffffffffffffffff16815260200190815260200160002060009054906101000a900460ff166002811115610b1a577f4e487b7100000000000000000000000000000000000000000000000000000000600052602160045260246000fd5b14610b5a576040517f08c379a0000000000000000000000000000000000000000000000000000000008152600401610b5190613530565b60405180910390fd5b60008082815260200190815260200160002060050160003373ffffffffffffffffffffffffffffffffffffffff1673ffffffffffffffffffffffffffffffffffffffff16815260200190815260200160002060009054906101000a900460ff1660008083815260200190815260200160002060050160008673ffffffffffffffffffffffffffffffffffffffff1673ffffffffffffffffffffffffffffffffffffffff16815260200190815260200160002060006101000a81548160ff02191690836002811115610c54577f4e487b7100000000000000000000000000000000000000000000000000000000600052602160045260246000fd5b021790555060008082815260200190815260200160002060050160003373ffffffffffffffffffffffffffffffffffffffff1673ffffffffffffffffffffffffffffffffffffffff16815260200190815260200160002060006101000a81549060ff02191690558373ffffffffffffffffffffffffffffffffffffffff163373ffffffffffffffffffffffffffffffffffffffff16827f303f95491a4e3f0c1425403ef49486c804823b7a3fa9b5ffc31ffe42554aef4960405160405180910390a45050505050565b600082600081604051602001610d339190613296565b6040516020818303038152906040528051906020012090506001600082815260200190815260200160002060009054906101000a900460ff16610dab576040517f08c379a0000000000000000000000000000000000000000000000000000000008152600401610da290613590565b60405180910390fd5b84600081604051602001610dbf9190613296565b6040516020818303038152906040528051906020012090506001151560008083815260200190815260200160002060040160003373ffffffffffffffffffffffffffffffffffffffff1673ffffffffffffffffffffffffffffffffffffffff16815260200190815260200160002060009054906101000a900460ff16151514610e7d576040517f08c379a0000000000000000000000000000000000000000000000000000000008152600401610e7490613430565b60405180910390fd5b600087604051602001610e909190613296565b604051602081830303815290604052805190602001209050600080600083815260200190815260200160002060050160008973ffffffffffffffffffffffffffffffffffffffff1673ffffffffffffffffffffffffffffffffffffffff16815260200190815260200160002060009054906101000a900460ff16905060016002811115610f46577f4e487b7100000000000000000000000000000000000000000000000000000000600052602160045260246000fd5b816002811115610f7f577f4e487b7100000000000000000000000000000000000000000000000000000000600052602160045260246000fd5b141561102757600260008084815260200190815260200160002060050160008a73ffffffffffffffffffffffffffffffffffffffff1673ffffffffffffffffffffffffffffffffffffffff16815260200190815260200160002060006101000a81548160ff02191690836002811115611021577f4e487b7100000000000000000000000000000000000000000000000000000000600052602160045260246000fd5b02179055505b8773ffffffffffffffffffffffffffffffffffffffff16827fce6483e7a8975bd18c39f34b1070b4807bf3c345338ebd86fb633c1234bf1d468360008087815260200190815260200160002060050160008d73ffffffffffffffffffffffffffffffffffffffff1673ffffffffffffffffffffffffffffffffffffffff16815260200190815260200160002060009054906101000a900460ff166040516110cf9291906133e7565b60405180910390a380965050505050505092915050565b6000826000816040516020016110fc9190613296565b6040516020818303038152906040528051906020012090506001600082815260200190815260200160002060009054906101000a900460ff16611174576040517f08c379a000000000000000000000000000000000000000000000000000000000815260040161116b90613590565b60405180910390fd5b6000856040516020016111879190613296565b60405160208183030381529060405280519060200120905060008082815260200190815260200160002060040160008673ffffffffffffffffffffffffffffffffffffffff1673ffffffffffffffffffffffffffffffffffffffff16815260200190815260200160002060009054906101000a900460ff16935050505092915050565b8160008160405160200161121e9190613296565b6040516020818303038152906040528051906020012090506001600082815260200190815260200160002060009054906101000a900460ff16611296576040517f08c379a000000000000000000000000000000000000000000000000000000000815260040161128d90613590565b60405180910390fd5b836000816040516020016112aa9190613296565b60405160208183030381529060405280519060200120905060008082815260200190815260200160002060020154600080838152602001908152602001600020600301541061132e576040517f08c379a000000000000000000000000000000000000000000000000000000000815260040161132590613470565b60405180910390fd5b856000816040516020016113429190613296565b6040516020818303038152906040528051906020012090503373ffffffffffffffffffffffffffffffffffffffff1660008083815260200190815260200160002060000160009054906101000a900473ffffffffffffffffffffffffffffffffffffffff1673ffffffffffffffffffffffffffffffffffffffff16146113fd576040517f08c379a00000000000000000000000000000000000000000000000000000000081526004016113f490613570565b60405180910390fd5b6000886040516020016114109190613296565b6040516020818303038152906040528051906020012090506114328989612672565b8773ffffffffffffffffffffffffffffffffffffffff163373ffffffffffffffffffffffffffffffffffffffff16827f0f86cf592ad3ef371651e6bbaf1e7b515b208f0081ed95c5bc86b3d7946bc39e60405160405180910390a4505050505050505050565b6114a0612a22565b73ffffffffffffffffffffffffffffffffffffffff166114be611644565b73ffffffffffffffffffffffffffffffffffffffff1614611514576040517f08c379a000000000000000000000000000000000000000000000000000000000815260040161150b90613510565b60405180910390fd5b61151e6000612a2a565b565b6000826000816040516020016115369190613296565b6040516020818303038152906040528051906020012090506001600082815260200190815260200160002060009054906101000a900460ff166115ae576040517f08c379a00000000000000000000000000000000000000000000000000000000081526004016115a590613590565b60405180910390fd5b6000856040516020016115c19190613296565b60405160208183030381529060405280519060200120905060008082815260200190815260200160002060050160008673ffffffffffffffffffffffffffffffffffffffff1673ffffffffffffffffffffffffffffffffffffffff16815260200190815260200160002060009054906101000a900460ff16935050505092915050565b6000600260009054906101000a900473ffffffffffffffffffffffffffffffffffffffff16905090565b6000836040516020016116819190613296565b6040516020818303038152906040528051906020012090506001600082815260200190815260200160002060009054906101000a900460ff16156116fa576040517f08c379a00000000000000000000000000000000000000000000000000000000081526004016116f1906134f0565b60405180910390fd5b6000821161173d576040517f08c379a0000000000000000000000000000000000000000000000000000000008152600401611734906135b0565b60405180910390fd5b600180600083815260200190815260200160002060006101000a81548160ff0219169083151502179055503360008083815260200190815260200160002060000160006101000a81548173ffffffffffffffffffffffffffffffffffffffff021916908373ffffffffffffffffffffffffffffffffffffffff16021790555082600080838152602001908152602001600020600101819055508160008083815260200190815260200160002060020181905550600160008083815260200190815260200160002060040160003373ffffffffffffffffffffffffffffffffffffffff1673ffffffffffffffffffffffffffffffffffffffff16815260200190815260200160002060006101000a81548160ff0219169083151502179055503373ffffffffffffffffffffffffffffffffffffffff16817f89f93302c37b82c43f88bc8639bbf8751d497c7e5a47e1fe26fe136860ed181b85856040516118a492919061360b565b60405180910390a350505050565b806000816040516020016118c69190613296565b6040516020818303038152906040528051906020012090506001600082815260200190815260200160002060009054906101000a900460ff1661193e576040517f08c379a000000000000000000000000000000000000000000000000000000000815260040161193590613590565b60405180910390fd5b6000836040516020016119519190613296565b604051602081830303815290604052805190602001209050600160028111156119a3577f4e487b7100000000000000000000000000000000000000000000000000000000600052602160045260246000fd5b60008083815260200190815260200160002060050160003373ffffffffffffffffffffffffffffffffffffffff1673ffffffffffffffffffffffffffffffffffffffff16815260200190815260200160002060009054906101000a900460ff166002811115611a3b577f4e487b7100000000000000000000000000000000000000000000000000000000600052602160045260246000fd5b14611a7b576040517f08c379a0000000000000000000000000000000000000000000000000000000008152600401611a72906135d0565b60405180910390fd5b600080600083815260200190815260200160002060050160003373ffffffffffffffffffffffffffffffffffffffff1673ffffffffffffffffffffffffffffffffffffffff16815260200190815260200160002060006101000a81548160ff02191690836002811115611b17577f4e487b7100000000000000000000000000000000000000000000000000000000600052602160045260246000fd5b0217905550611b45600160008084815260200190815260200160002060030154612af090919063ffffffff16565b60008083815260200190815260200160002060030181905550807f69c9ee86f4784ad5df893ecb06cee4053e6ec58b01c81e6830ccf58022abafc660008084815260200190815260200160002060030154604051611ba391906135f0565b60405180910390a250505050565b60008060008084600081604051602001611bcb9190613296565b6040516020818303038152906040528051906020012090506001600082815260200190815260200160002060009054906101000a900460ff16611c43576040517f08c379a0000000000000000000000000000000000000000000000000000000008152600401611c3a90613590565b60405180910390fd5b600087604051602001611c569190613296565b60405160208183030381529060405280519060200120905060008082815260200190815260200160002060000160009054906101000a900473ffffffffffffffffffffffffffffffffffffffff1660008083815260200190815260200160002060010154600080848152602001908152602001600020600201546000808581526020019081526020016000206003015496509650965096505050509193509193565b60006020528060005260406000206000915090508060000160009054906101000a900473ffffffffffffffffffffffffffffffffffffffff16908060010154908060020154908060030154905084565b6000600460008473ffffffffffffffffffffffffffffffffffffffff1673ffffffffffffffffffffffffffffffffffffffff168152602001908152602001600020600083815260200190815260200160002054905092915050565b81600081604051602001611db79190613296565b6040516020818303038152906040528051906020012090506001600082815260200190815260200160002060009054906101000a900460ff16611e2f576040517f08c379a0000000000000000000000000000000000000000000000000000000008152600401611e2690613590565b60405180910390fd5b83600081604051602001611e439190613296565b6040516020818303038152906040528051906020012090503373ffffffffffffffffffffffffffffffffffffffff1660008083815260200190815260200160002060000160009054906101000a900473ffffffffffffffffffffffffffffffffffffffff1673ffffffffffffffffffffffffffffffffffffffff1614611efe576040517f08c379a0000000000000000000000000000000000000000000000000000000008152600401611ef590613570565b60405180910390fd5b600086604051602001611f119190613296565b6040516020818303038152906040528051906020012090506000151560008083815260200190815260200160002060040160008873ffffffffffffffffffffffffffffffffffffffff1673ffffffffffffffffffffffffffffffffffffffff16815260200190815260200160002060009054906101000a900460ff16151514611fcf576040517f08c379a0000000000000000000000000000000000000000000000000000000008152600401611fc690613410565b60405180910390fd5b600160008083815260200190815260200160002060040160008873ffffffffffffffffffffffffffffffffffffffff1673ffffffffffffffffffffffffffffffffffffffff16815260200190815260200160002060006101000a81548160ff0219169083151502179055508573ffffffffffffffffffffffffffffffffffffffff16817fbb400cfad824e0557f43b234668ecf3a376a0f1aeade3520e23ea40f7c184bf060405160405180910390a350505050505050565b8160008160405160200161209b9190613296565b6040516020818303038152906040528051906020012090506001600082815260200190815260200160002060009054906101000a900460ff16612113576040517f08c379a000000000000000000000000000000000000000000000000000000000815260040161210a90613590565b60405180910390fd5b836000816040516020016121279190613296565b6040516020818303038152906040528051906020012090503373ffffffffffffffffffffffffffffffffffffffff1660008083815260200190815260200160002060000160009054906101000a900473ffffffffffffffffffffffffffffffffffffffff1673ffffffffffffffffffffffffffffffffffffffff16146121e2576040517f08c379a00000000000000000000000000000000000000000000000000000000081526004016121d990613570565b60405180910390fd5b6000866040516020016121f59190613296565b6040516020818303038152906040528051906020012090506001151560008083815260200190815260200160002060040160008873ffffffffffffffffffffffffffffffffffffffff1673ffffffffffffffffffffffffffffffffffffffff16815260200190815260200160002060009054906101000a900460ff161515146122b3576040517f08c379a00000000000000000000000000000000000000000000000000000000081526004016122aa906134d0565b60405180910390fd5b60008082815260200190815260200160002060040160008773ffffffffffffffffffffffffffffffffffffffff1673ffffffffffffffffffffffffffffffffffffffff16815260200190815260200160002060006101000a81549060ff02191690558573ffffffffffffffffffffffffffffffffffffffff16817f99c3f73cc5c91394575839eca44393183ffde59d0b4671f05c5a78918d6bbf2660405160405180910390a350505050505050565b6000600460003373ffffffffffffffffffffffffffffffffffffffff1673ffffffffffffffffffffffffffffffffffffffff1681526020019081526020016000206000838152602001908152602001600020549050600081116123fa576040517f08c379a00000000000000000000000000000000000000000000000000000000081526004016123f190613550565b60405180910390fd5b6000600460003373ffffffffffffffffffffffffffffffffffffffff1673ffffffffffffffffffffffffffffffffffffffff168152602001908152602001600020600084815260200190815260200160002081905550600360009054906101000a900473ffffffffffffffffffffffffffffffffffffffff1673ffffffffffffffffffffffffffffffffffffffff1663a9059cbb33836040518363ffffffff1660e01b81526004016124ad9291906132ff565b602060405180830381600087803b1580156124c757600080fd5b505af11580156124db573d6000803e3d6000fd5b505050506040513d601f19601f820116820180604052508101906124ff9190612c3c565b503373ffffffffffffffffffffffffffffffffffffffff167f3f68878d210235124344c7f77d2f1835e66ff2f5ae8bed556b88bf8cec5c66a48383604051612548929190613388565b60405180910390a25050565b61255c612a22565b73ffffffffffffffffffffffffffffffffffffffff1661257a611644565b73ffffffffffffffffffffffffffffffffffffffff16146125d0576040517f08c379a00000000000000000000000000000000000000000000000000000000081526004016125c790613510565b60405180910390fd5b600073ffffffffffffffffffffffffffffffffffffffff168173ffffffffffffffffffffffffffffffffffffffff161415612640576040517f08c379a000000000000000000000000000000000000000000000000000000000815260040161263790613450565b60405180910390fd5b61264981612a2a565b50565b600360009054906101000a900473ffffffffffffffffffffffffffffffffffffffff1681565b816000816040516020016126869190613296565b6040516020818303038152906040528051906020012090506001600082815260200190815260200160002060009054906101000a900460ff166126fe576040517f08c379a00000000000000000000000000000000000000000000000000000000081526004016126f590613590565b60405180910390fd5b836000816040516020016127129190613296565b604051602081830303815290604052805190602001209050600080828152602001908152602001600020600201546000808381526020019081526020016000206003015410612796576040517f08c379a000000000000000000000000000000000000000000000000000000000815260040161278d90613470565b60405180910390fd5b6000866040516020016127a99190613296565b604051602081830303815290604052805190602001209050600060028111156127fb577f4e487b7100000000000000000000000000000000000000000000000000000000600052602160045260246000fd5b60008083815260200190815260200160002060050160008873ffffffffffffffffffffffffffffffffffffffff1673ffffffffffffffffffffffffffffffffffffffff16815260200190815260200160002060009054906101000a900460ff166002811115612893577f4e487b7100000000000000000000000000000000000000000000000000000000600052602160045260246000fd5b146128d3576040517f08c379a00000000000000000000000000000000000000000000000000000000081526004016128ca906134b0565b60405180910390fd5b600160008083815260200190815260200160002060050160008873ffffffffffffffffffffffffffffffffffffffff1673ffffffffffffffffffffffffffffffffffffffff16815260200190815260200160002060006101000a81548160ff0219169083600281111561296f577f4e487b7100000000000000000000000000000000000000000000000000000000600052602160045260246000fd5b021790555061299d600160008084815260200190815260200160002060030154612a0c90919063ffffffff16565b60008083815260200190815260200160002060030181905550807f69c9ee86f4784ad5df893ecb06cee4053e6ec58b01c81e6830ccf58022abafc6600080848152602001908152602001600020600301546040516129fb91906135f0565b60405180910390a250505050505050565b60008183612a1a91906136bc565b905092915050565b600033905090565b6000600260009054906101000a900473ffffffffffffffffffffffffffffffffffffffff16905081600260006101000a81548173ffffffffffffffffffffffffffffffffffffffff021916908373ffffffffffffffffffffffffffffffffffffffff1602179055508173ffffffffffffffffffffffffffffffffffffffff168173ffffffffffffffffffffffffffffffffffffffff167f8be0079c531659141344cd1fd0a4f28419497f9722a3daafe3b4186f6b6457e060405160405180910390a35050565b60008183612afe9190613712565b905092915050565b6000612b19612b1484613665565b613634565b905082815260208101848484011115612b3157600080fd5b612b3c8482856137e1565b509392505050565b600081359050612b53816138c4565b92915050565b600081519050612b68816138db565b92915050565b600081359050612b7d816138f2565b92915050565b600082601f830112612b9457600080fd5b8135612ba4848260208601612b06565b91505092915050565b600081359050612bbc81613909565b92915050565b600081519050612bd181613909565b92915050565b600060208284031215612be957600080fd5b6000612bf784828501612b44565b91505092915050565b60008060408385031215612c1357600080fd5b6000612c2185828601612b44565b9250506020612c3285828601612b6e565b9150509250929050565b600060208284031215612c4e57600080fd5b6000612c5c84828501612b59565b91505092915050565b600060208284031215612c7757600080fd5b6000612c8584828501612b6e565b91505092915050565b600060208284031215612ca057600080fd5b600082013567ffffffffffffffff811115612cba57600080fd5b612cc684828501612b83565b91505092915050565b60008060408385031215612ce257600080fd5b600083013567ffffffffffffffff811115612cfc57600080fd5b612d0885828601612b83565b9250506020612d1985828601612b44565b9150509250929050565b600080600060608486031215612d3857600080fd5b600084013567ffffffffffffffff811115612d5257600080fd5b612d5e86828701612b83565b9350506020612d6f86828701612bad565b9250506040612d8086828701612bad565b9150509250925092565b600060208284031215612d9c57600080fd5b6000612daa84828501612bc2565b91505092915050565b612dbc81613746565b82525050565b612dcb81613758565b82525050565b612dda81613764565b82525050565b612de9816137ab565b82525050565b612df8816137cf565b82525050565b6000612e0982613695565b612e1381856136b1565b9350612e238185602086016137f0565b80840191505092915050565b6000612e3c601c836136a0565b91507f4164647265737320697320616c7265616479206120636865636b6572000000006000830152602082019050919050565b6000612e7c6015836136a0565b91507f4d757374206265206576656e7420636865636b657200000000000000000000006000830152602082019050919050565b6000612ebc6026836136a0565b91507f4f776e61626c653a206e6577206f776e657220697320746865207a65726f206160008301527f64647265737300000000000000000000000000000000000000000000000000006020830152604082019050919050565b6000612f226019836136a0565b91507f4e6f206d6f7265207469636b65747320617661696c61626c65000000000000006000830152602082019050919050565b6000612f626018836136a0565b91507f446f6573206e6f74206861766520656e6f7567682044414900000000000000006000830152602082019050919050565b6000612fa2601a836136a0565b91507f4164647265737320616c726561647920686173207469636b65740000000000006000830152602082019050919050565b6000612fe26020836136a0565b91507f4164647265737320697320616c7265616479206e6f74206120636865636b65726000830152602082019050919050565b60006130226014836136a0565b91507f4576656e7420616c7265616479206578697374730000000000000000000000006000830152602082019050919050565b60006130626020836136a0565b91507f4f776e61626c653a2063616c6c6572206973206e6f7420746865206f776e65726000830152602082019050919050565b60006130a26024836136a0565b91507f5f726563656976654164647265737320616c726561647920686173206120746960008301527f636b6574000000000000000000000000000000000000000000000000000000006020830152604082019050919050565b60006131086013836136a0565b91507f4e6f2062616c616e636520746f20636c61696d000000000000000000000000006000830152602082019050919050565b60006131486013836136a0565b91507f4d757374206265206576656e74206f776e6572000000000000000000000000006000830152602082019050919050565b60006131886014836136a0565b91507f4576656e7420646f6573206e6f742065786973740000000000000000000000006000830152602082019050919050565b60006131c86029836136a0565b91507f5469636b6574207175616e74697479206d75737420626520677265617465722060008301527f7468616e207a65726f00000000000000000000000000000000000000000000006020830152604082019050919050565b600061322e603b836136a0565b91507f6d73672e73656e64657220646f6573206e6f74206861766520616e20756e636c60008301527f61696d6564207469636b657420666f722074686973206576656e7400000000006020830152604082019050919050565b613290816137a1565b82525050565b60006132a28284612dfe565b915081905092915050565b60006020820190506132c26000830184612db3565b92915050565b60006060820190506132dd6000830186612db3565b6132ea6020830185612db3565b6132f76040830184613287565b949350505050565b60006040820190506133146000830185612db3565b6133216020830184613287565b9392505050565b600060808201905061333d6000830187612db3565b61334a6020830186613287565b6133576040830185613287565b6133646060830184613287565b95945050505050565b60006020820190506133826000830184612dc2565b92915050565b600060408201905061339d6000830185612dd1565b6133aa6020830184613287565b9392505050565b60006020820190506133c66000830184612de0565b92915050565b60006020820190506133e16000830184612def565b92915050565b60006040820190506133fc6000830185612def565b6134096020830184612def565b9392505050565b6000602082019050818103600083015261342981612e2f565b9050919050565b6000602082019050818103600083015261344981612e6f565b9050919050565b6000602082019050818103600083015261346981612eaf565b9050919050565b6000602082019050818103600083015261348981612f15565b9050919050565b600060208201905081810360008301526134a981612f55565b9050919050565b600060208201905081810360008301526134c981612f95565b9050919050565b600060208201905081810360008301526134e981612fd5565b9050919050565b6000602082019050818103600083015261350981613015565b9050919050565b6000602082019050818103600083015261352981613055565b9050919050565b6000602082019050818103600083015261354981613095565b9050919050565b60006020820190508181036000830152613569816130fb565b9050919050565b600060208201905081810360008301526135898161313b565b9050919050565b600060208201905081810360008301526135a98161317b565b9050919050565b600060208201905081810360008301526135c9816131bb565b9050919050565b600060208201905081810360008301526135e981613221565b9050919050565b60006020820190506136056000830184613287565b92915050565b60006040820190506136206000830185613287565b61362d6020830184613287565b9392505050565b6000604051905081810181811067ffffffffffffffff8211171561365b5761365a613881565b5b8060405250919050565b600067ffffffffffffffff8211156136805761367f613881565b5b601f19601f8301169050602081019050919050565b600081519050919050565b600082825260208201905092915050565b600081905092915050565b60006136c7826137a1565b91506136d2836137a1565b9250827fffffffffffffffffffffffffffffffffffffffffffffffffffffffffffffffff0382111561370757613706613823565b5b828201905092915050565b600061371d826137a1565b9150613728836137a1565b92508282101561373b5761373a613823565b5b828203905092915050565b600061375182613781565b9050919050565b60008115159050919050565b6000819050919050565b600081905061377c826138b0565b919050565b600073ffffffffffffffffffffffffffffffffffffffff82169050919050565b6000819050919050565b60006137b6826137bd565b9050919050565b60006137c882613781565b9050919050565b60006137da8261376e565b9050919050565b82818337600083830152505050565b60005b8381101561380e5780820151818401526020810190506137f3565b8381111561381d576000848401525b50505050565b7f4e487b7100000000000000000000000000000000000000000000000000000000600052601160045260246000fd5b7f4e487b7100000000000000000000000000000000000000000000000000000000600052602160045260246000fd5b7f4e487b7100000000000000000000000000000000000000000000000000000000600052604160045260246000fd5b600381106138c1576138c0613852565b5b50565b6138cd81613746565b81146138d857600080fd5b50565b6138e481613758565b81146138ef57600080fd5b50565b6138fb81613764565b811461390657600080fd5b50565b613912816137a1565b811461391d57600080fd5b5056fea26469706673582212201ac171a4e7bbbe25a511a86b4c68661c0fc1d6e341ee3bcbc9a6eec4196e3f4d64736f6c63430008000033",
  "immutableReferences": {},
  "source": "//SPDX-License-Identifier: MIT\npragma solidity ^0.8.0;\n\nimport \"./TicketAccounting.sol\";\nimport \"@openzeppelin/contracts/access/Ownable.sol\";\nimport \"@openzeppelin/contracts/token/ERC20/utils/SafeERC20.sol\";\n\ncontract TicketSales is TicketAccounting, Ownable {\n    using SafeERC20 for IERC20;\n    using SafeMath for uint256;\n\n    /* ===== State ===== */\n\n    IERC20 public dai;\n    mapping (address => mapping (bytes32 => uint256)) private balances;\n\n    /* ===== Constructor ===== */\n\n    constructor(address daiAddress) {\n        dai = IERC20(daiAddress);\n    }\n\n    /* ===== Events ===== */\n\n    event TicketBought(bytes32 indexed _eventNameHash, address indexed _buyer, address indexed _receiver);\n    event BalanceClaimed(address indexed _receiver, bytes32 _asset, uint256 _amount);\n\n    /* ===== Public Getters ===== */\n\n    function getBalance(address _address, bytes32 _asset) public view returns(uint256) {\n        return balances[_address][_asset];\n    }\n\n    /* ===== Functions ===== */\n\n    // Owner of the Event can send tickets for free\n    function ownerIssueTicket(string memory _eventName, address _receiveAddress) external eventExists(_eventName) ticketsAvailable(_eventName) onlyEventOwner(_eventName) {\n        bytes32 eventNameHash = keccak256(abi.encodePacked(_eventName));\n        issueTicket(_eventName, _receiveAddress);\n        emit TicketBought(eventNameHash, msg.sender, _receiveAddress);\n    }\n\n    // Purchase a ticket with DAI\n    function buyTicketDai(string memory _eventName, address _receiveAddress) external eventExists(_eventName) ticketsAvailable(_eventName) {\n        bytes32 eventNameHash = keccak256(abi.encodePacked(_eventName));\n        require(dai.balanceOf(msg.sender) >= events[eventNameHash].ticketPrice, \"Does not have enough DAI\");\n        issueTicket(_eventName, _receiveAddress);\n        balances[events[eventNameHash].owner][\"DAI\"] = balances[events[eventNameHash].owner][\"DAI\"].add(events[eventNameHash].ticketPrice);\n        dai.transferFrom(msg.sender, address(this), events[eventNameHash].ticketPrice);\n        emit TicketBought(eventNameHash, msg.sender, _receiveAddress);\n    }\n\n    function claimBalance(bytes32 _asset) external {\n        uint256 amount = balances[msg.sender][_asset];\n        require(amount > 0, \"No balance to claim\");\n        balances[msg.sender][_asset] = 0;\n        dai.transfer(msg.sender, amount);\n        emit BalanceClaimed(msg.sender, _asset, amount);\n    }\n\n}",
  "sourcePath": "/home/tyler-quinn/projects/EventTicketingSystem/contracts/TicketSales.sol",
  "compiler": {
    "name": "solc",
    "version": "0.8.0+commit.c7dfd78e.Emscripten.clang"
  },
  "schemaVersion": "3.4.3",
  "updatedAt": "2022-04-07T00:33:20.316Z",
  "networkType": "ethereum",
  "devdoc": {
    "kind": "dev",
    "methods": {
      "owner()": {
        "details": "Returns the address of the current owner."
      },
      "renounceOwnership()": {
        "details": "Leaves the contract without owner. It will not be possible to call `onlyOwner` functions anymore. Can only be called by the current owner. NOTE: Renouncing ownership will leave the contract without an owner, thereby removing any functionality that is only available to the owner."
      },
      "transferOwnership(address)": {
        "details": "Transfers ownership of the contract to a new account (`newOwner`). Can only be called by the current owner."
      }
    },
    "version": 1
  },
  "userdoc": {
    "kind": "user",
    "methods": {},
    "version": 1
  }
}