{
  "contractName": "TicketSales",
  "abi": [
    {
      "inputs": [
        {
          "internalType": "address",
          "name": "daiAddress",
          "type": "address"
        }
      ],
      "stateMutability": "nonpayable",
      "type": "constructor"
    },
    {
      "anonymous": false,
      "inputs": [
        {
          "indexed": true,
          "internalType": "address",
          "name": "_receiver",
          "type": "address"
        },
        {
          "indexed": false,
          "internalType": "bytes32",
          "name": "_asset",
          "type": "bytes32"
        },
        {
          "indexed": false,
          "internalType": "uint256",
          "name": "_amount",
          "type": "uint256"
        }
      ],
      "name": "BalanceClaimed",
      "type": "event"
    },
    {
      "anonymous": false,
      "inputs": [
        {
          "indexed": true,
          "internalType": "bytes32",
          "name": "_eventNameHash",
          "type": "bytes32"
        },
        {
          "indexed": true,
          "internalType": "address",
          "name": "_checkerAddress",
          "type": "address"
        }
      ],
      "name": "CheckerAdded",
      "type": "event"
    },
    {
      "anonymous": false,
      "inputs": [
        {
          "indexed": true,
          "internalType": "bytes32",
          "name": "_eventNameHash",
          "type": "bytes32"
        },
        {
          "indexed": true,
          "internalType": "address",
          "name": "_checkerAddress",
          "type": "address"
        }
      ],
      "name": "CheckerRemoved",
      "type": "event"
    },
    {
      "anonymous": false,
      "inputs": [
        {
          "indexed": true,
          "internalType": "bytes32",
          "name": "_eventNameHash",
          "type": "bytes32"
        },
        {
          "indexed": true,
          "internalType": "address",
          "name": "_owner",
          "type": "address"
        },
        {
          "indexed": false,
          "internalType": "uint256",
          "name": "_ticketPrice",
          "type": "uint256"
        },
        {
          "indexed": false,
          "internalType": "uint256",
          "name": "_ticketQuantity",
          "type": "uint256"
        }
      ],
      "name": "NewEvent",
      "type": "event"
    },
    {
      "anonymous": false,
      "inputs": [
        {
          "indexed": true,
          "internalType": "address",
          "name": "previousOwner",
          "type": "address"
        },
        {
          "indexed": true,
          "internalType": "address",
          "name": "newOwner",
          "type": "address"
        }
      ],
      "name": "OwnershipTransferred",
      "type": "event"
    },
    {
      "anonymous": false,
      "inputs": [
        {
          "indexed": true,
          "internalType": "bytes32",
          "name": "_eventNameHash",
          "type": "bytes32"
        },
        {
          "indexed": true,
          "internalType": "address",
          "name": "_buyer",
          "type": "address"
        },
        {
          "indexed": true,
          "internalType": "address",
          "name": "_receiver",
          "type": "address"
        }
      ],
      "name": "TicketBought",
      "type": "event"
    },
    {
      "anonymous": false,
      "inputs": [
        {
          "indexed": true,
          "internalType": "bytes32",
          "name": "_eventNameHash",
          "type": "bytes32"
        },
        {
          "indexed": true,
          "internalType": "address",
          "name": "_atendeeAddress",
          "type": "address"
        },
        {
          "indexed": false,
          "internalType": "enum TicketAccounting.TicketState",
          "name": "_startState",
          "type": "uint8"
        },
        {
          "indexed": false,
          "internalType": "enum TicketAccounting.TicketState",
          "name": "_endState",
          "type": "uint8"
        }
      ],
      "name": "TicketChecked",
      "type": "event"
    },
    {
      "anonymous": false,
      "inputs": [
        {
          "indexed": true,
          "internalType": "bytes32",
          "name": "_eventNameHash",
          "type": "bytes32"
        },
        {
          "indexed": true,
          "internalType": "address",
          "name": "_sendAddress",
          "type": "address"
        },
        {
          "indexed": true,
          "internalType": "address",
          "name": "_receiveAddress",
          "type": "address"
        }
      ],
      "name": "TicketTransferred",
      "type": "event"
    },
    {
      "anonymous": false,
      "inputs": [
        {
          "indexed": true,
          "internalType": "bytes32",
          "name": "_eventNameHash",
          "type": "bytes32"
        },
        {
          "indexed": false,
          "internalType": "uint256",
          "name": "_ticketQuantityIssued",
          "type": "uint256"
        }
      ],
      "name": "UpdateTicketAmount",
      "type": "event"
    },
    {
      "inputs": [
        {
          "internalType": "bytes32",
          "name": "_eventNameHash",
          "type": "bytes32"
        },
        {
          "internalType": "address",
          "name": "_newChecker",
          "type": "address"
        }
      ],
      "name": "addChecker",
      "outputs": [],
      "stateMutability": "nonpayable",
      "type": "function"
    },
    {
      "inputs": [
        {
          "internalType": "address",
          "name": "",
          "type": "address"
        },
        {
          "internalType": "bytes32",
          "name": "",
          "type": "bytes32"
        }
      ],
      "name": "balances",
      "outputs": [
        {
          "internalType": "uint256",
          "name": "",
          "type": "uint256"
        }
      ],
      "stateMutability": "view",
      "type": "function",
      "constant": true
    },
    {
      "inputs": [
        {
          "internalType": "bytes32",
          "name": "_eventNameHash",
          "type": "bytes32"
        }
      ],
      "name": "burnUnclaimedTicket",
      "outputs": [],
      "stateMutability": "nonpayable",
      "type": "function"
    },
    {
      "inputs": [
        {
          "internalType": "bytes32",
          "name": "_eventNameHash",
          "type": "bytes32"
        },
        {
          "internalType": "address",
          "name": "_atendeeAddress",
          "type": "address"
        }
      ],
      "name": "checkInTicket",
      "outputs": [
        {
          "internalType": "enum TicketAccounting.TicketState",
          "name": "",
          "type": "uint8"
        }
      ],
      "stateMutability": "nonpayable",
      "type": "function"
    },
    {
      "inputs": [
        {
          "internalType": "string",
          "name": "_eventName",
          "type": "string"
        },
        {
          "internalType": "uint256",
          "name": "_ticketPrice",
          "type": "uint256"
        },
        {
          "internalType": "uint256",
          "name": "_ticketQuantity",
          "type": "uint256"
        }
      ],
      "name": "createEvent",
      "outputs": [],
      "stateMutability": "nonpayable",
      "type": "function"
    },
    {
      "inputs": [],
      "name": "dai",
      "outputs": [
        {
          "internalType": "contract IERC20",
          "name": "",
          "type": "address"
        }
      ],
      "stateMutability": "view",
      "type": "function",
      "constant": true
    },
    {
      "inputs": [
        {
          "internalType": "bytes32",
          "name": "",
          "type": "bytes32"
        }
      ],
      "name": "events",
      "outputs": [
        {
          "internalType": "address",
          "name": "owner",
          "type": "address"
        },
        {
          "internalType": "uint256",
          "name": "ticketPrice",
          "type": "uint256"
        },
        {
          "internalType": "uint256",
          "name": "ticketQuantity",
          "type": "uint256"
        },
        {
          "internalType": "uint256",
          "name": "ticketQuantityIssued",
          "type": "uint256"
        }
      ],
      "stateMutability": "view",
      "type": "function",
      "constant": true
    },
    {
      "inputs": [
        {
          "internalType": "bytes32",
          "name": "_eventNameHash",
          "type": "bytes32"
        },
        {
          "internalType": "address",
          "name": "_checkAddress",
          "type": "address"
        }
      ],
      "name": "getCheckerStatus",
      "outputs": [
        {
          "internalType": "bool",
          "name": "",
          "type": "bool"
        }
      ],
      "stateMutability": "view",
      "type": "function",
      "constant": true
    },
    {
      "inputs": [
        {
          "internalType": "bytes32",
          "name": "_eventNameHash",
          "type": "bytes32"
        }
      ],
      "name": "getEventData",
      "outputs": [
        {
          "internalType": "address",
          "name": "",
          "type": "address"
        },
        {
          "internalType": "uint256",
          "name": "",
          "type": "uint256"
        },
        {
          "internalType": "uint256",
          "name": "",
          "type": "uint256"
        },
        {
          "internalType": "uint256",
          "name": "",
          "type": "uint256"
        }
      ],
      "stateMutability": "view",
      "type": "function",
      "constant": true
    },
    {
      "inputs": [
        {
          "internalType": "bytes32",
          "name": "_eventNameHash",
          "type": "bytes32"
        },
        {
          "internalType": "address",
          "name": "_checkAddress",
          "type": "address"
        }
      ],
      "name": "getTicketStatus",
      "outputs": [
        {
          "internalType": "enum TicketAccounting.TicketState",
          "name": "",
          "type": "uint8"
        }
      ],
      "stateMutability": "view",
      "type": "function",
      "constant": true
    },
    {
      "inputs": [],
      "name": "owner",
      "outputs": [
        {
          "internalType": "address",
          "name": "",
          "type": "address"
        }
      ],
      "stateMutability": "view",
      "type": "function",
      "constant": true
    },
    {
      "inputs": [
        {
          "internalType": "bytes32",
          "name": "_eventNameHash",
          "type": "bytes32"
        },
        {
          "internalType": "address",
          "name": "_removedChecker",
          "type": "address"
        }
      ],
      "name": "removeChecker",
      "outputs": [],
      "stateMutability": "nonpayable",
      "type": "function"
    },
    {
      "inputs": [],
      "name": "renounceOwnership",
      "outputs": [],
      "stateMutability": "nonpayable",
      "type": "function"
    },
    {
      "inputs": [
        {
          "internalType": "address",
          "name": "newOwner",
          "type": "address"
        }
      ],
      "name": "transferOwnership",
      "outputs": [],
      "stateMutability": "nonpayable",
      "type": "function"
    },
    {
      "inputs": [
        {
          "internalType": "bytes32",
          "name": "_eventNameHash",
          "type": "bytes32"
        },
        {
          "internalType": "address",
          "name": "_receiveAddress",
          "type": "address"
        }
      ],
      "name": "transferUnclaimedTicket",
      "outputs": [],
      "stateMutability": "nonpayable",
      "type": "function"
    },
    {
      "inputs": [
        {
          "internalType": "bytes32",
          "name": "_eventNameHash",
          "type": "bytes32"
        },
        {
          "internalType": "address",
          "name": "_receiveAddress",
          "type": "address"
        }
      ],
      "name": "ownerIssueTicket",
      "outputs": [],
      "stateMutability": "nonpayable",
      "type": "function"
    },
    {
      "inputs": [
        {
          "internalType": "bytes32",
          "name": "_eventNameHash",
          "type": "bytes32"
        },
        {
          "internalType": "address",
          "name": "_receiveAddress",
          "type": "address"
        }
      ],
      "name": "buyTicketDai",
      "outputs": [],
      "stateMutability": "nonpayable",
      "type": "function"
    },
    {
      "inputs": [
        {
          "internalType": "bytes32",
          "name": "_asset",
          "type": "bytes32"
        }
      ],
      "name": "claimBalance",
      "outputs": [],
      "stateMutability": "nonpayable",
      "type": "function"
    }
  ],
  "bytecode": "0x60806040523480156200001157600080fd5b50604051620035d9380380620035d9833981810160405281019062000037919062000184565b620000576200004b6200009f60201b60201c565b620000a760201b60201c565b80600360006101000a81548173ffffffffffffffffffffffffffffffffffffffff021916908373ffffffffffffffffffffffffffffffffffffffff16021790555050620001fe565b600033905090565b6000600260009054906101000a900473ffffffffffffffffffffffffffffffffffffffff16905081600260006101000a81548173ffffffffffffffffffffffffffffffffffffffff021916908373ffffffffffffffffffffffffffffffffffffffff1602179055508173ffffffffffffffffffffffffffffffffffffffff168173ffffffffffffffffffffffffffffffffffffffff167f8be0079c531659141344cd1fd0a4f28419497f9722a3daafe3b4186f6b6457e060405160405180910390a35050565b6000815190506200017e81620001e4565b92915050565b6000602082840312156200019757600080fd5b6000620001a7848285016200016d565b91505092915050565b6000620001bd82620001c4565b9050919050565b600073ffffffffffffffffffffffffffffffffffffffff82169050919050565b620001ef81620001b0565b8114620001fb57600080fd5b50565b6133cb806200020e6000396000f3fe608060405234801561001057600080fd5b50600436106101165760003560e01c80639e9580f6116100a2578063e59c5e0d11610071578063e59c5e0d146102f5578063e80f57ef14610311578063f00096e31461032d578063f2fde38b14610349578063f4b9fa751461036557610116565b80639e9580f61461025a578063b15c6a9414610276578063bfdc4a6114610292578063c40516c6146102c557610116565b80634bbf2bf4116100e95780634bbf2bf4146101ca578063715018a6146101fa5780637e77ec64146102045780638da5cb5b1461022057806392e204141461023e57610116565b80630c49f8c11461011b57806313fc6ac2146101375780631f14df691461016a5780633b14e7781461019a575b600080fd5b6101356004803603810190610130919061275c565b610383565b005b610151600480360381019061014c9190612733565b6107fb565b6040516101619493929190612d9d565b60405180910390f35b610184600480360381019061017f91906126ce565b6108ea565b6040516101919190613065565b60405180910390f35b6101b460048036038101906101af919061275c565b61090f565b6040516101c19190612e41565b60405180910390f35b6101e460048036038101906101df919061275c565b610c54565b6040516101f19190612de2565b60405180910390f35b610202610d20565b005b61021e60048036038101906102199190612733565b610da8565b005b61022861104f565b6040516102359190612d22565b60405180910390f35b6102586004803603810190610253919061275c565b611079565b005b610274600480360381019061026f9190612798565b6112d0565b005b610290600480360381019061028b919061275c565b611514565b005b6102ac60048036038101906102a79190612733565b611774565b6040516102bc9493929190612d9d565b60405180910390f35b6102df60048036038101906102da919061275c565b6117c4565b6040516102ec9190612e41565b60405180910390f35b61030f600480360381019061030a919061275c565b611890565b005b61032b60048036038101906103269190612733565b611a6e565b005b6103476004803603810190610342919061275c565b611c60565b005b610363600480360381019061035e91906126a5565b6120a6565b005b61036d61219e565b60405161037a9190612e26565b60405180910390f35b816001600082815260200190815260200160002060009054906101000a900460ff166103e4576040517f08c379a00000000000000000000000000000000000000000000000000000000081526004016103db90613005565b60405180910390fd5b82600080828152602001908152602001600020600201546000808381526020019081526020016000206003015410610451576040517f08c379a000000000000000000000000000000000000000000000000000000000815260040161044890612ee5565b60405180910390fd5b60008085815260200190815260200160002060010154600360009054906101000a900473ffffffffffffffffffffffffffffffffffffffff1673ffffffffffffffffffffffffffffffffffffffff166370a08231336040518263ffffffff1660e01b81526004016104c29190612d22565b60206040518083038186803b1580156104da57600080fd5b505afa1580156104ee573d6000803e3d6000fd5b505050506040513d601f19601f8201168201806040525081019061051291906127ff565b1015610553576040517f08c379a000000000000000000000000000000000000000000000000000000000815260040161054a90612f05565b60405180910390fd5b61055d84846121c4565b61062a600080868152602001908152602001600020600101546004600080600089815260200190815260200160002060000160009054906101000a900473ffffffffffffffffffffffffffffffffffffffff1673ffffffffffffffffffffffffffffffffffffffff1673ffffffffffffffffffffffffffffffffffffffff16815260200190815260200160002060007f44414900000000000000000000000000000000000000000000000000000000008152602001908152602001600020546124da90919063ffffffff16565b6004600080600088815260200190815260200160002060000160009054906101000a900473ffffffffffffffffffffffffffffffffffffffff1673ffffffffffffffffffffffffffffffffffffffff1673ffffffffffffffffffffffffffffffffffffffff16815260200190815260200160002060007f4441490000000000000000000000000000000000000000000000000000000000815260200190815260200160002081905550600360009054906101000a900473ffffffffffffffffffffffffffffffffffffffff1673ffffffffffffffffffffffffffffffffffffffff166323b872dd3330600080898152602001908152602001600020600101546040518463ffffffff1660e01b815260040161074793929190612d3d565b602060405180830381600087803b15801561076157600080fd5b505af1158015610775573d6000803e3d6000fd5b505050506040513d601f19601f82011682018060405250810190610799919061270a565b508273ffffffffffffffffffffffffffffffffffffffff163373ffffffffffffffffffffffffffffffffffffffff16857f0f86cf592ad3ef371651e6bbaf1e7b515b208f0081ed95c5bc86b3d7946bc39e60405160405180910390a450505050565b600080600080846001600082815260200190815260200160002060009054906101000a900460ff16610862576040517f08c379a000000000000000000000000000000000000000000000000000000000815260040161085990613005565b60405180910390fd5b60008087815260200190815260200160002060000160009054906101000a900473ffffffffffffffffffffffffffffffffffffffff1660008088815260200190815260200160002060010154600080898152602001908152602001600020600201546000808a8152602001908152602001600020600301549450945094509450509193509193565b6004602052816000526040600020602052806000526040600020600091509150505481565b6000826001600082815260200190815260200160002060009054906101000a900460ff16610972576040517f08c379a000000000000000000000000000000000000000000000000000000000815260040161096990613005565b60405180910390fd5b836001151560008083815260200190815260200160002060040160003373ffffffffffffffffffffffffffffffffffffffff1673ffffffffffffffffffffffffffffffffffffffff16815260200190815260200160002060009054906101000a900460ff16151514610a19576040517f08c379a0000000000000000000000000000000000000000000000000000000008152600401610a1090612ea5565b60405180910390fd5b600080600087815260200190815260200160002060050160008673ffffffffffffffffffffffffffffffffffffffff1673ffffffffffffffffffffffffffffffffffffffff16815260200190815260200160002060009054906101000a900460ff16905060016002811115610ab7577f4e487b7100000000000000000000000000000000000000000000000000000000600052602160045260246000fd5b816002811115610af0577f4e487b7100000000000000000000000000000000000000000000000000000000600052602160045260246000fd5b1415610b9857600260008088815260200190815260200160002060050160008773ffffffffffffffffffffffffffffffffffffffff1673ffffffffffffffffffffffffffffffffffffffff16815260200190815260200160002060006101000a81548160ff02191690836002811115610b92577f4e487b7100000000000000000000000000000000000000000000000000000000600052602160045260246000fd5b02179055505b8473ffffffffffffffffffffffffffffffffffffffff16867fce6483e7a8975bd18c39f34b1070b4807bf3c345338ebd86fb633c1234bf1d46836000808b815260200190815260200160002060050160008a73ffffffffffffffffffffffffffffffffffffffff1673ffffffffffffffffffffffffffffffffffffffff16815260200190815260200160002060009054906101000a900460ff16604051610c40929190612e5c565b60405180910390a380935050505092915050565b6000826001600082815260200190815260200160002060009054906101000a900460ff16610cb7576040517f08c379a0000000000000000000000000000000000000000000000000000000008152600401610cae90613005565b60405180910390fd5b60008085815260200190815260200160002060040160008473ffffffffffffffffffffffffffffffffffffffff1673ffffffffffffffffffffffffffffffffffffffff16815260200190815260200160002060009054906101000a900460ff1691505092915050565b610d286124f0565b73ffffffffffffffffffffffffffffffffffffffff16610d4661104f565b73ffffffffffffffffffffffffffffffffffffffff1614610d9c576040517f08c379a0000000000000000000000000000000000000000000000000000000008152600401610d9390612f85565b60405180910390fd5b610da660006124f8565b565b806001600082815260200190815260200160002060009054906101000a900460ff16610e09576040517f08c379a0000000000000000000000000000000000000000000000000000000008152600401610e0090613005565b60405180910390fd5b60016002811115610e43577f4e487b7100000000000000000000000000000000000000000000000000000000600052602160045260246000fd5b60008084815260200190815260200160002060050160003373ffffffffffffffffffffffffffffffffffffffff1673ffffffffffffffffffffffffffffffffffffffff16815260200190815260200160002060009054906101000a900460ff166002811115610edb577f4e487b7100000000000000000000000000000000000000000000000000000000600052602160045260246000fd5b14610f1b576040517f08c379a0000000000000000000000000000000000000000000000000000000008152600401610f1290613045565b60405180910390fd5b600080600084815260200190815260200160002060050160003373ffffffffffffffffffffffffffffffffffffffff1673ffffffffffffffffffffffffffffffffffffffff16815260200190815260200160002060006101000a81548160ff02191690836002811115610fb7577f4e487b7100000000000000000000000000000000000000000000000000000000600052602160045260246000fd5b0217905550610fe56001600080858152602001908152602001600020600301546125be90919063ffffffff16565b60008084815260200190815260200160002060030181905550817f69c9ee86f4784ad5df893ecb06cee4053e6ec58b01c81e6830ccf58022abafc6600080858152602001908152602001600020600301546040516110439190613065565b60405180910390a25050565b6000600260009054906101000a900473ffffffffffffffffffffffffffffffffffffffff16905090565b816001600082815260200190815260200160002060009054906101000a900460ff166110da576040517f08c379a00000000000000000000000000000000000000000000000000000000081526004016110d190613005565b60405180910390fd5b823373ffffffffffffffffffffffffffffffffffffffff1660008083815260200190815260200160002060000160009054906101000a900473ffffffffffffffffffffffffffffffffffffffff1673ffffffffffffffffffffffffffffffffffffffff161461117e576040517f08c379a000000000000000000000000000000000000000000000000000000000815260040161117590612fe5565b60405180910390fd5b6001151560008086815260200190815260200160002060040160008573ffffffffffffffffffffffffffffffffffffffff1673ffffffffffffffffffffffffffffffffffffffff16815260200190815260200160002060009054906101000a900460ff16151514611224576040517f08c379a000000000000000000000000000000000000000000000000000000000815260040161121b90612f45565b60405180910390fd5b60008085815260200190815260200160002060040160008473ffffffffffffffffffffffffffffffffffffffff1673ffffffffffffffffffffffffffffffffffffffff16815260200190815260200160002060006101000a81549060ff02191690558273ffffffffffffffffffffffffffffffffffffffff16847f99c3f73cc5c91394575839eca44393183ffde59d0b4671f05c5a78918d6bbf2660405160405180910390a350505050565b6000836040516020016112e39190612d0b565b6040516020818303038152906040528051906020012090506001600082815260200190815260200160002060009054906101000a900460ff161561135c576040517f08c379a000000000000000000000000000000000000000000000000000000000815260040161135390612f65565b60405180910390fd5b6000821161139f576040517f08c379a000000000000000000000000000000000000000000000000000000000815260040161139690613025565b60405180910390fd5b600180600083815260200190815260200160002060006101000a81548160ff0219169083151502179055503360008083815260200190815260200160002060000160006101000a81548173ffffffffffffffffffffffffffffffffffffffff021916908373ffffffffffffffffffffffffffffffffffffffff16021790555082600080838152602001908152602001600020600101819055508160008083815260200190815260200160002060020181905550600160008083815260200190815260200160002060040160003373ffffffffffffffffffffffffffffffffffffffff1673ffffffffffffffffffffffffffffffffffffffff16815260200190815260200160002060006101000a81548160ff0219169083151502179055503373ffffffffffffffffffffffffffffffffffffffff16817f89f93302c37b82c43f88bc8639bbf8751d497c7e5a47e1fe26fe136860ed181b8585604051611506929190613080565b60405180910390a350505050565b816001600082815260200190815260200160002060009054906101000a900460ff16611575576040517f08c379a000000000000000000000000000000000000000000000000000000000815260040161156c90613005565b60405180910390fd5b823373ffffffffffffffffffffffffffffffffffffffff1660008083815260200190815260200160002060000160009054906101000a900473ffffffffffffffffffffffffffffffffffffffff1673ffffffffffffffffffffffffffffffffffffffff1614611619576040517f08c379a000000000000000000000000000000000000000000000000000000000815260040161161090612fe5565b60405180910390fd5b6000151560008086815260200190815260200160002060040160008573ffffffffffffffffffffffffffffffffffffffff1673ffffffffffffffffffffffffffffffffffffffff16815260200190815260200160002060009054906101000a900460ff161515146116bf576040517f08c379a00000000000000000000000000000000000000000000000000000000081526004016116b690612e85565b60405180910390fd5b600160008086815260200190815260200160002060040160008573ffffffffffffffffffffffffffffffffffffffff1673ffffffffffffffffffffffffffffffffffffffff16815260200190815260200160002060006101000a81548160ff0219169083151502179055508273ffffffffffffffffffffffffffffffffffffffff16847fbb400cfad824e0557f43b234668ecf3a376a0f1aeade3520e23ea40f7c184bf060405160405180910390a350505050565b60006020528060005260406000206000915090508060000160009054906101000a900473ffffffffffffffffffffffffffffffffffffffff16908060010154908060020154908060030154905084565b6000826001600082815260200190815260200160002060009054906101000a900460ff16611827576040517f08c379a000000000000000000000000000000000000000000000000000000000815260040161181e90613005565b60405180910390fd5b60008085815260200190815260200160002060050160008473ffffffffffffffffffffffffffffffffffffffff1673ffffffffffffffffffffffffffffffffffffffff16815260200190815260200160002060009054906101000a900460ff1691505092915050565b816001600082815260200190815260200160002060009054906101000a900460ff166118f1576040517f08c379a00000000000000000000000000000000000000000000000000000000081526004016118e890613005565b60405180910390fd5b8260008082815260200190815260200160002060020154600080838152602001908152602001600020600301541061195e576040517f08c379a000000000000000000000000000000000000000000000000000000000815260040161195590612ee5565b60405180910390fd5b833373ffffffffffffffffffffffffffffffffffffffff1660008083815260200190815260200160002060000160009054906101000a900473ffffffffffffffffffffffffffffffffffffffff1673ffffffffffffffffffffffffffffffffffffffff1614611a02576040517f08c379a00000000000000000000000000000000000000000000000000000000081526004016119f990612fe5565b60405180910390fd5b611a0c85856121c4565b8373ffffffffffffffffffffffffffffffffffffffff163373ffffffffffffffffffffffffffffffffffffffff16867f0f86cf592ad3ef371651e6bbaf1e7b515b208f0081ed95c5bc86b3d7946bc39e60405160405180910390a45050505050565b6000600460003373ffffffffffffffffffffffffffffffffffffffff1673ffffffffffffffffffffffffffffffffffffffff168152602001908152602001600020600083815260200190815260200160002054905060008111611b06576040517f08c379a0000000000000000000000000000000000000000000000000000000008152600401611afd90612fc5565b60405180910390fd5b6000600460003373ffffffffffffffffffffffffffffffffffffffff1673ffffffffffffffffffffffffffffffffffffffff168152602001908152602001600020600084815260200190815260200160002081905550600360009054906101000a900473ffffffffffffffffffffffffffffffffffffffff1673ffffffffffffffffffffffffffffffffffffffff1663a9059cbb33836040518363ffffffff1660e01b8152600401611bb9929190612d74565b602060405180830381600087803b158015611bd357600080fd5b505af1158015611be7573d6000803e3d6000fd5b505050506040513d601f19601f82011682018060405250810190611c0b919061270a565b503373ffffffffffffffffffffffffffffffffffffffff167f3f68878d210235124344c7f77d2f1835e66ff2f5ae8bed556b88bf8cec5c66a48383604051611c54929190612dfd565b60405180910390a25050565b816001600082815260200190815260200160002060009054906101000a900460ff16611cc1576040517f08c379a0000000000000000000000000000000000000000000000000000000008152600401611cb890613005565b60405180910390fd5b60016002811115611cfb577f4e487b7100000000000000000000000000000000000000000000000000000000600052602160045260246000fd5b60008085815260200190815260200160002060050160003373ffffffffffffffffffffffffffffffffffffffff1673ffffffffffffffffffffffffffffffffffffffff16815260200190815260200160002060009054906101000a900460ff166002811115611d93577f4e487b7100000000000000000000000000000000000000000000000000000000600052602160045260246000fd5b14611dd3576040517f08c379a0000000000000000000000000000000000000000000000000000000008152600401611dca90613045565b60405180910390fd5b60006002811115611e0d577f4e487b7100000000000000000000000000000000000000000000000000000000600052602160045260246000fd5b60008085815260200190815260200160002060050160008473ffffffffffffffffffffffffffffffffffffffff1673ffffffffffffffffffffffffffffffffffffffff16815260200190815260200160002060009054906101000a900460ff166002811115611ea5577f4e487b7100000000000000000000000000000000000000000000000000000000600052602160045260246000fd5b14611ee5576040517f08c379a0000000000000000000000000000000000000000000000000000000008152600401611edc90612fa5565b60405180910390fd5b60008084815260200190815260200160002060050160003373ffffffffffffffffffffffffffffffffffffffff1673ffffffffffffffffffffffffffffffffffffffff16815260200190815260200160002060009054906101000a900460ff1660008085815260200190815260200160002060050160008473ffffffffffffffffffffffffffffffffffffffff1673ffffffffffffffffffffffffffffffffffffffff16815260200190815260200160002060006101000a81548160ff02191690836002811115611fdf577f4e487b7100000000000000000000000000000000000000000000000000000000600052602160045260246000fd5b021790555060008084815260200190815260200160002060050160003373ffffffffffffffffffffffffffffffffffffffff1673ffffffffffffffffffffffffffffffffffffffff16815260200190815260200160002060006101000a81549060ff02191690558173ffffffffffffffffffffffffffffffffffffffff163373ffffffffffffffffffffffffffffffffffffffff16847f303f95491a4e3f0c1425403ef49486c804823b7a3fa9b5ffc31ffe42554aef4960405160405180910390a4505050565b6120ae6124f0565b73ffffffffffffffffffffffffffffffffffffffff166120cc61104f565b73ffffffffffffffffffffffffffffffffffffffff1614612122576040517f08c379a000000000000000000000000000000000000000000000000000000000815260040161211990612f85565b60405180910390fd5b600073ffffffffffffffffffffffffffffffffffffffff168173ffffffffffffffffffffffffffffffffffffffff161415612192576040517f08c379a000000000000000000000000000000000000000000000000000000000815260040161218990612ec5565b60405180910390fd5b61219b816124f8565b50565b600360009054906101000a900473ffffffffffffffffffffffffffffffffffffffff1681565b816001600082815260200190815260200160002060009054906101000a900460ff16612225576040517f08c379a000000000000000000000000000000000000000000000000000000000815260040161221c90613005565b60405180910390fd5b82600080828152602001908152602001600020600201546000808381526020019081526020016000206003015410612292576040517f08c379a000000000000000000000000000000000000000000000000000000000815260040161228990612ee5565b60405180910390fd5b600060028111156122cc577f4e487b7100000000000000000000000000000000000000000000000000000000600052602160045260246000fd5b60008086815260200190815260200160002060050160008573ffffffffffffffffffffffffffffffffffffffff1673ffffffffffffffffffffffffffffffffffffffff16815260200190815260200160002060009054906101000a900460ff166002811115612364577f4e487b7100000000000000000000000000000000000000000000000000000000600052602160045260246000fd5b146123a4576040517f08c379a000000000000000000000000000000000000000000000000000000000815260040161239b90612f25565b60405180910390fd5b600160008086815260200190815260200160002060050160008573ffffffffffffffffffffffffffffffffffffffff1673ffffffffffffffffffffffffffffffffffffffff16815260200190815260200160002060006101000a81548160ff02191690836002811115612440577f4e487b7100000000000000000000000000000000000000000000000000000000600052602160045260246000fd5b021790555061246e6001600080878152602001908152602001600020600301546124da90919063ffffffff16565b60008086815260200190815260200160002060030181905550837f69c9ee86f4784ad5df893ecb06cee4053e6ec58b01c81e6830ccf58022abafc6600080878152602001908152602001600020600301546040516124cc9190613065565b60405180910390a250505050565b600081836124e89190613131565b905092915050565b600033905090565b6000600260009054906101000a900473ffffffffffffffffffffffffffffffffffffffff16905081600260006101000a81548173ffffffffffffffffffffffffffffffffffffffff021916908373ffffffffffffffffffffffffffffffffffffffff1602179055508173ffffffffffffffffffffffffffffffffffffffff168173ffffffffffffffffffffffffffffffffffffffff167f8be0079c531659141344cd1fd0a4f28419497f9722a3daafe3b4186f6b6457e060405160405180910390a35050565b600081836125cc9190613187565b905092915050565b60006125e76125e2846130da565b6130a9565b9050828152602081018484840111156125ff57600080fd5b61260a848285613256565b509392505050565b60008135905061262181613339565b92915050565b60008151905061263681613350565b92915050565b60008135905061264b81613367565b92915050565b600082601f83011261266257600080fd5b81356126728482602086016125d4565b91505092915050565b60008135905061268a8161337e565b92915050565b60008151905061269f8161337e565b92915050565b6000602082840312156126b757600080fd5b60006126c584828501612612565b91505092915050565b600080604083850312156126e157600080fd5b60006126ef85828601612612565b92505060206127008582860161263c565b9150509250929050565b60006020828403121561271c57600080fd5b600061272a84828501612627565b91505092915050565b60006020828403121561274557600080fd5b60006127538482850161263c565b91505092915050565b6000806040838503121561276f57600080fd5b600061277d8582860161263c565b925050602061278e85828601612612565b9150509250929050565b6000806000606084860312156127ad57600080fd5b600084013567ffffffffffffffff8111156127c757600080fd5b6127d386828701612651565b93505060206127e48682870161267b565b92505060406127f58682870161267b565b9150509250925092565b60006020828403121561281157600080fd5b600061281f84828501612690565b91505092915050565b612831816131bb565b82525050565b612840816131cd565b82525050565b61284f816131d9565b82525050565b61285e81613220565b82525050565b61286d81613244565b82525050565b600061287e8261310a565b6128888185613126565b9350612898818560208601613265565b80840191505092915050565b60006128b1601c83613115565b91507f4164647265737320697320616c7265616479206120636865636b6572000000006000830152602082019050919050565b60006128f1601583613115565b91507f4d757374206265206576656e7420636865636b657200000000000000000000006000830152602082019050919050565b6000612931602683613115565b91507f4f776e61626c653a206e6577206f776e657220697320746865207a65726f206160008301527f64647265737300000000000000000000000000000000000000000000000000006020830152604082019050919050565b6000612997601983613115565b91507f4e6f206d6f7265207469636b65747320617661696c61626c65000000000000006000830152602082019050919050565b60006129d7601883613115565b91507f446f6573206e6f74206861766520656e6f7567682044414900000000000000006000830152602082019050919050565b6000612a17601a83613115565b91507f4164647265737320616c726561647920686173207469636b65740000000000006000830152602082019050919050565b6000612a57602083613115565b91507f4164647265737320697320616c7265616479206e6f74206120636865636b65726000830152602082019050919050565b6000612a97601483613115565b91507f4576656e7420616c7265616479206578697374730000000000000000000000006000830152602082019050919050565b6000612ad7602083613115565b91507f4f776e61626c653a2063616c6c6572206973206e6f7420746865206f776e65726000830152602082019050919050565b6000612b17602483613115565b91507f5f726563656976654164647265737320616c726561647920686173206120746960008301527f636b6574000000000000000000000000000000000000000000000000000000006020830152604082019050919050565b6000612b7d601383613115565b91507f4e6f2062616c616e636520746f20636c61696d000000000000000000000000006000830152602082019050919050565b6000612bbd601383613115565b91507f4d757374206265206576656e74206f776e6572000000000000000000000000006000830152602082019050919050565b6000612bfd601483613115565b91507f4576656e7420646f6573206e6f742065786973740000000000000000000000006000830152602082019050919050565b6000612c3d602983613115565b91507f5469636b6574207175616e74697479206d75737420626520677265617465722060008301527f7468616e207a65726f00000000000000000000000000000000000000000000006020830152604082019050919050565b6000612ca3603b83613115565b91507f6d73672e73656e64657220646f6573206e6f74206861766520616e20756e636c60008301527f61696d6564207469636b657420666f722074686973206576656e7400000000006020830152604082019050919050565b612d0581613216565b82525050565b6000612d178284612873565b915081905092915050565b6000602082019050612d376000830184612828565b92915050565b6000606082019050612d526000830186612828565b612d5f6020830185612828565b612d6c6040830184612cfc565b949350505050565b6000604082019050612d896000830185612828565b612d966020830184612cfc565b9392505050565b6000608082019050612db26000830187612828565b612dbf6020830186612cfc565b612dcc6040830185612cfc565b612dd96060830184612cfc565b95945050505050565b6000602082019050612df76000830184612837565b92915050565b6000604082019050612e126000830185612846565b612e1f6020830184612cfc565b9392505050565b6000602082019050612e3b6000830184612855565b92915050565b6000602082019050612e566000830184612864565b92915050565b6000604082019050612e716000830185612864565b612e7e6020830184612864565b9392505050565b60006020820190508181036000830152612e9e816128a4565b9050919050565b60006020820190508181036000830152612ebe816128e4565b9050919050565b60006020820190508181036000830152612ede81612924565b9050919050565b60006020820190508181036000830152612efe8161298a565b9050919050565b60006020820190508181036000830152612f1e816129ca565b9050919050565b60006020820190508181036000830152612f3e81612a0a565b9050919050565b60006020820190508181036000830152612f5e81612a4a565b9050919050565b60006020820190508181036000830152612f7e81612a8a565b9050919050565b60006020820190508181036000830152612f9e81612aca565b9050919050565b60006020820190508181036000830152612fbe81612b0a565b9050919050565b60006020820190508181036000830152612fde81612b70565b9050919050565b60006020820190508181036000830152612ffe81612bb0565b9050919050565b6000602082019050818103600083015261301e81612bf0565b9050919050565b6000602082019050818103600083015261303e81612c30565b9050919050565b6000602082019050818103600083015261305e81612c96565b9050919050565b600060208201905061307a6000830184612cfc565b92915050565b60006040820190506130956000830185612cfc565b6130a26020830184612cfc565b9392505050565b6000604051905081810181811067ffffffffffffffff821117156130d0576130cf6132f6565b5b8060405250919050565b600067ffffffffffffffff8211156130f5576130f46132f6565b5b601f19601f8301169050602081019050919050565b600081519050919050565b600082825260208201905092915050565b600081905092915050565b600061313c82613216565b915061314783613216565b9250827fffffffffffffffffffffffffffffffffffffffffffffffffffffffffffffffff0382111561317c5761317b613298565b5b828201905092915050565b600061319282613216565b915061319d83613216565b9250828210156131b0576131af613298565b5b828203905092915050565b60006131c6826131f6565b9050919050565b60008115159050919050565b6000819050919050565b60008190506131f182613325565b919050565b600073ffffffffffffffffffffffffffffffffffffffff82169050919050565b6000819050919050565b600061322b82613232565b9050919050565b600061323d826131f6565b9050919050565b600061324f826131e3565b9050919050565b82818337600083830152505050565b60005b83811015613283578082015181840152602081019050613268565b83811115613292576000848401525b50505050565b7f4e487b7100000000000000000000000000000000000000000000000000000000600052601160045260246000fd5b7f4e487b7100000000000000000000000000000000000000000000000000000000600052602160045260246000fd5b7f4e487b7100000000000000000000000000000000000000000000000000000000600052604160045260246000fd5b60038110613336576133356132c7565b5b50565b613342816131bb565b811461334d57600080fd5b50565b613359816131cd565b811461336457600080fd5b50565b613370816131d9565b811461337b57600080fd5b50565b61338781613216565b811461339257600080fd5b5056fea264697066735822122042fd97cdd3a644f3d599016e8c70943a7153574416606395ee5633248c2266d564736f6c63430008000033",
  "immutableReferences": {},
  "source": "//SPDX-License-Identifier: MIT\npragma solidity ^0.8.0;\n\nimport \"./TicketAccounting.sol\";\nimport \"@openzeppelin/contracts/access/Ownable.sol\";\nimport \"@openzeppelin/contracts/token/ERC20/utils/SafeERC20.sol\";\n\ncontract TicketSales is TicketAccounting, Ownable {\n    using SafeERC20 for IERC20;\n    using SafeMath for uint256;\n\n    /* ===== State ===== */\n\n    IERC20 public dai;\n    mapping (address => mapping (bytes32 => uint256)) public balances;\n\n    /* ===== Constructor ===== */\n\n    constructor(address daiAddress) {\n        dai = IERC20(daiAddress);\n    }\n\n    /* ===== Events ===== */\n\n    event TicketBought(bytes32 indexed _eventNameHash, address indexed _buyer, address indexed _receiver);\n    event BalanceClaimed(address indexed _receiver, bytes32 _asset, uint256 _amount);\n\n    /* ===== Functions ===== */\n\n    // Owner of the Event can send tickets for free\n    function ownerIssueTicket(bytes32 _eventNameHash, address _receiveAddress) external eventExists(_eventNameHash) ticketsAvailable(_eventNameHash) onlyEventOwner(_eventNameHash) {\n        issueTicket(_eventNameHash, _receiveAddress);\n        emit TicketBought(_eventNameHash, msg.sender, _receiveAddress);\n    }\n\n    // Purchase a ticket with DAI\n    function buyTicketDai(bytes32 _eventNameHash, address _receiveAddress) external eventExists(_eventNameHash) ticketsAvailable(_eventNameHash) {\n        require(dai.balanceOf(msg.sender) >= events[_eventNameHash].ticketPrice, \"Does not have enough DAI\");\n        issueTicket(_eventNameHash, _receiveAddress);\n        balances[events[_eventNameHash].owner][\"DAI\"] = balances[events[_eventNameHash].owner][\"DAI\"].add(events[_eventNameHash].ticketPrice);\n        dai.transferFrom(msg.sender, address(this), events[_eventNameHash].ticketPrice);\n        emit TicketBought(_eventNameHash, msg.sender, _receiveAddress);\n    }\n\n    function claimBalance(bytes32 _asset) external {\n        uint256 amount = balances[msg.sender][_asset];\n        require(amount > 0, \"No balance to claim\");\n        balances[msg.sender][_asset] = 0;\n        dai.transfer(msg.sender, amount);\n        emit BalanceClaimed(msg.sender, _asset, amount);\n    }\n\n}",
  "sourcePath": "/home/tyler-quinn/projects/EventTicketingSystem/contracts/TicketSales.sol",
  "compiler": {
    "name": "solc",
    "version": "0.8.0+commit.c7dfd78e.Emscripten.clang"
  },
  "schemaVersion": "3.4.3",
  "updatedAt": "2022-05-04T02:08:07.407Z",
  "networkType": "ethereum",
  "devdoc": {
    "kind": "dev",
    "methods": {
      "owner()": {
        "details": "Returns the address of the current owner."
      },
      "renounceOwnership()": {
        "details": "Leaves the contract without owner. It will not be possible to call `onlyOwner` functions anymore. Can only be called by the current owner. NOTE: Renouncing ownership will leave the contract without an owner, thereby removing any functionality that is only available to the owner."
      },
      "transferOwnership(address)": {
        "details": "Transfers ownership of the contract to a new account (`newOwner`). Can only be called by the current owner."
      }
    },
    "version": 1
  },
  "userdoc": {
    "kind": "user",
    "methods": {},
    "version": 1
  }
}